:100000000C942A000C9447000C9447000C94470071
:100010000C9447000C9447000C9447000C94470044
:100020000C9447000C9447000C9447000C94470034
:100030000C9447000C9447000C9447000C94470024
:100040000C9447000C9447000C9447000C94470014
:100050000C94470011241FBECFE5D8E0DEBFCDBF12
:1000600010E0A0E6B0E0E8E0FCE002C005900D92F0
:10007000A23CB107D9F720E0A2ECB0E001C01D928C
:10008000A43CB207E1F70E94AC020C9402060C9467
:10009000000041E065E084E390E00E94700141E0EF
:1000A00066E084E390E00E94700141E065E081E356
:1000B00090E00E9470018AE690E00E94DB020895C1
:1000C000CF93C62F882319F0813071F019C041E019
:1000D00065E085E390E00E948E0140E066E085E304
:1000E00090E00E948E010CC040E065E085E390E066
:1000F0000E948E0141E066E085E390E00E948E015F
:10010000C13051F018F0C23069F011C064E170E004
:1001100081E00E94CC030BC062E370E081E00E94AA
:10012000CC0305C06AE570E081E00E94CC03CF916A
:10013000089541E063E084E390E00E94700141E0B3
:1001400064E084E390E00E94700141E064E081E3B8
:1001500090E00E9470018AE690E00E94DB02089520
:10016000CF93C62F882319F0813071F019C041E078
:1001700063E085E390E00E948E0140E064E085E367
:1001800090E00E948E010CC040E063E085E390E0C7
:100190000E948E0141E064E085E390E00E948E01C0
:1001A000C13051F018F0C23069F011C064E170E064
:1001B00081E00E94CC030BC062E370E081E00E940A
:1001C000CC0305C06AE570E081E00E94CC03CF91CA
:1001D000089561E080E00E94600061E080E00E949C
:1001E000B0008EE790E00E949F022FEF89E698E131
:1001F000215080409040E1F700C000000E94390289
:10020000089561E081E00E94600061E081E00E9469
:10021000B0008DE890E00E949F022FEF89E698E100
:10022000215080409040E1F700C000000E94390258
:10023000089561E080E00E94600061E081E00E943A
:10024000B0008DE990E00E949F022FEF89E698E1CF
:10025000215080409040E1F700C000000E94390228
:10026000089561E081E00E94600061E080E00E940A
:10027000B0008AEA90E00E949F022FEF89E698E1A1
:10028000215080409040E1F700C000000E943902F8
:10029000089540E063E085E390E00E948E0140E035
:1002A00064E085E390E00E948E0160E070E081E010
:1002B0000E94CC0388EB90E00E949F022FEF89E61A
:1002C00098E1215080409040E1F700C000000E947A
:1002D00039020895682F70E081E00E94CC030895F0
:1002E000442319F0413071F00895FC01408121E070
:1002F00030E002C0220F331F6A95E2F720952423D5
:1003000020830895FC01408121E030E002C0220FEB
:10031000331F6A95E2F7242B20830895442319F0B4
:10032000413071F00895FC01408121E030E002C0CD
:10033000220F331F6A95E2F7209524232083089526
:10034000FC01408121E030E002C0220F331F6A959A
:10035000E2F7242B20830895CF93C82F40E061E07B
:1003600088E390E00E948E0140E062E088E390E044
:100370000E948E018FE99FE00197F1F700C0000015
:1003800041E063E088E390E00E948E018FE99FE006
:100390000197F1F700C000008BB38F708BBB8BB35C
:1003A0009C2F907F892B8BBB8FE99FE00197F1F702
:1003B00000C0000040E063E088E390E00E948E010E
:1003C0008FE99FE00197F1F700C0000041E063E092
:1003D00088E390E00E948E018FE99FE00197F1F79A
:1003E00000C000008BB38F708BBB8BB3C295C07FF6
:1003F000C82BCBBB8FE99FE00197F1F700C000004D
:1004000040E063E088E390E00E948E018FE99FE086
:100410000197F1F700C00000CF9108952FEF89EF09
:1004200090E0215080409040E1F700C0000041E0A2
:1004300061E087E390E00E94700141E062E087E3C1
:1004400090E00E94700141E063E087E390E00E9449
:1004500070018AB3806F8ABB82E00E94AC0188E29F
:100460000E94AC018CE00E94AC0181E00E94AC01D2
:10047000089581E00E94AC010895CF93C82F41E018
:1004800061E088E390E00E948E0140E062E088E352
:1004900090E00E948E018FE99FE00197F1F700C084
:1004A000000041E063E088E390E00E948E018FE964
:1004B0009FE00197F1F700C000008BB38F708BBBFA
:1004C0008BB39C2F907F892B8BBB8FE99FE001978B
:1004D000F1F700C0000040E063E088E390E00E9494
:1004E0008E018FE99FE00197F1F700C0000041E025
:1004F00063E088E390E00E948E018FE99FE001971E
:10050000F1F700C000008BB38F708BBB8BB3C2952B
:10051000C07FC82BCBBB8FE99FE00197F1F700C0EC
:10052000000040E063E088E390E00E948E018FE9E4
:100530009FE00197F1F700C00000CF910895CF939D
:10054000DF93EC0103C00E943D0221968881811156
:10055000FACFDF91CF9108950E9449000E9499003F
:100560000E940E020E9446040E9453048C3619F425
:100570000E941901F9CF823719F40E943101F4CF9A
:10058000863619F40E94E900EFCF823619F40E94F2
:100590000101EACF833719F40E944901E5CF8C3479
:1005A00021F488E20E946A01DFCF8834E9F68FE502
:1005B0000E946A01D9CFCF92DF92EF92FF920F9300
:1005C0001F93CF93DF93FC018081882319F0813042
:1005D00099F1D9C013BE12BE93B7338181812281B4
:1005E000832B822B892B83BF82818032B1F08033B1
:1005F00009F0C9C08085918524E630E0281B390BBD
:100600003695279536952795ABE7B4E10E94F3051B
:100610009695879581958CBFB6C020853185369596
:10062000279536952795ABE7B4E10E94F30596959B
:10063000879581958CBFA7C01FBC1EBC1DBC1CBC70
:100640008181803479F08834C9F48FB58E7F8FBD75
:100650008FB582608FBD8EB588608EBD8EB580618E
:100660008EBD0CC08FB581608FBD8FB582608FBD90
:100670008EB5877F8EBD8EB580618EBDEF01068100
:1006800017816481758180E090E00E94F8049B01ED
:10069000AC0160E070E08AE794E40E9457046B01CB
:1006A0007C01B80180E090E00E94F804A701960167
:1006B0000E9486059B01AC0160E074E284E79BE444
:1006C0000E9457040E94C904615071097093C300CD
:1006D0006093C20077BD66BD8A81803261F180334C
:1006E00009F04DC08FB580648FBD8FB580688FBD18
:1006F0008885998564E670E0681B790B80E090E05E
:100700000E94F80420E030E048EC52E40E945704D4
:100710006B017C016091C2007091C30080E090E0A9
:100720000E94F804A70196010E9486050E94C90450
:100730007BBD6ABD24C08FB58F7B8FBD8FB58068B0
:100740008FBD6885798580E090E00E94F80420E004
:1007500030E048EC52E40E9457046B017C01609148
:10076000C2007091C30080E090E00E94F804A701ED
:1007700096010E9486050E94C9047BBD6ABD9EB594
:100780008B81892B8EBDDF91CF911F910F91FF90AF
:10079000EF90DF90CF900895CF92DF92EF92FF928B
:1007A000882319F0813039F16CC080916200803269
:1007B000A1F0803309F065C024E630E0261B370B3A
:1007C0003695279536952795ABE7B4E10E94F3055A
:1007D0009695879581958CBF54C09B01369527953A
:1007E00036952795ABE7B4E10E94F305969587957A
:1007F00081958CBF46C080916200803231F1803398
:1008000009F03FC084E690E09C01261B370BB9013C
:1008100080E090E00E94F80420E030E048EC52E4F0
:100820000E9457046B017C016091C2007091C3006B
:1008300080E090E00E94F804A70196010E948605DE
:100840000E94C9047BBD6ABD1CC080E090E00E948C
:10085000F80420E030E048EC52E40E9457046B01B9
:100860007C016091C2007091C30080E090E00E9422
:10087000F804A70196010E9486050E94C9047BBD69
:100880006ABDFF90EF90DF90CF90089581B38E7F87
:1008900081BB81B3826081BB88E18AB986EA80BD71
:1008A00089E189B908955F9BFECF8CB108950E94BC
:1008B0006B040C944C050E94450558F00E943E05BF
:1008C00040F029F45F3F29F00C94350551110C9448
:1008D00080050C943B050E945D0568F39923B1F3F4
:1008E000552391F3951B550BBB27AA276217730756
:1008F000840738F09F5F5F4F220F331F441FAA1FEA
:10090000A9F335D00E2E3AF0E0E832D091505040A5
:10091000E695001CCAF72BD0FE2F29D0660F771F53
:10092000881FBB1F261737074807AB07B0E809F039
:10093000BB0B802DBF01FF2793585F4F3AF09E3FBE
:10094000510578F00C9435050C9480055F3FE4F375
:10095000983ED4F3869577956795B795F7959F5F01
:10096000C9F7880F911D9695879597F90895E1E04D
:10097000660F771F881FBB1F621773078407BA07AC
:1009800020F0621B730B840BBA0BEE1F88F7E09507
:1009900008950E94650588F09F5798F0B92F992710
:1009A000B751B0F0E1F0660F771F881F991F1AF05A
:1009B000BA95C9F714C0B13091F00E947F05B1E03B
:1009C00008950C947F05672F782F8827B85F39F03A
:1009D000B93FCCF3869577956795B395D9F73EF4F3
:1009E00090958095709561957F4F8F4F9F4F08959B
:1009F000E89409C097FB3EF49095809570956195B9
:100A00007F4F8F4F9F4F9923A9F0F92F96E9BB276E
:100A10009395F695879577956795B795F111F8CFEA
:100A2000FAF4BB0F11F460FF1BC06F5F7F4F8F4F55
:100A30009F4F16C0882311F096E911C0772321F04B
:100A40009EE8872F762F05C0662371F096E8862FE3
:100A500070E060E02AF09A95660F771F881FDAF73A
:100A6000880F9695879597F9089597F99F6780E87D
:100A700070E060E008959FEF80EC089500240A94F0
:100A80001616170618060906089500240A94121669
:100A90001306140605060895092E0394000C11F49C
:100AA000882352F0BB0F40F4BF2B11F460FF04C049
:100AB0006F5F7F4F8F4F9F4F089557FD9058440FA2
:100AC000551F59F05F3F71F04795880F97FB991FAD
:100AD00061F09F3F79F0879508951216130614066A
:100AE000551FF2CF4695F1DF08C0161617061806F7
:100AF000991FF1CF86957105610508940895E894D2
:100B0000BB2766277727CB0197F908950E9499059F
:100B10000C944C050E943E0538F00E94450520F0DB
:100B2000952311F00C9435050C943B0511240C947D
:100B300080050E945D0570F3959FC1F3950F50E00D
:100B4000551F629FF001729FBB27F00DB11D639F7F
:100B5000AA27F00DB11DAA1F649F6627B00DA11D25
:100B6000661F829F2227B00DA11D621F739FB00DCB
:100B7000A11D621F839FA00D611D221F749F33273B
:100B8000A00D611D231F849F600D211D822F762FD4
:100B90006A2F11249F5750409AF0F1F088234AF0B1
:100BA000EE0FFF1FBB1F661F771F881F915050401D
:100BB000A9F79E3F510580F00C9435050C948005F3
:100BC0005F3FE4F3983ED4F3869577956795B795A4
:100BD000F795E7959F5FC1F7FE2B880F911D9695BE
:100BE000879597F90895A29FB001B39FC001A39F75
:100BF000700D811D1124911DB29F700D811D112456
:080C0000911D0895F894FFCF47
:100C080000483004010000013200014830030100AF
:100C180040003200024830050100000450004D6FCA
:100C280076696E6720466F7277617264004D6F76E1
:100C3800696E67204261636B7761726400547572F4
:100C48006E696E67204C656674005475726E696EC5
:100C5800672052696768740053746F7070696E67B3
:020C680000008A
:00000001FF
